{
	"schemaVersion": "2.0.0",
	"contractName": "TestLibBytes",
	"compilerOutput": {
		"abi": [
			{
				"constant": true,
				"inputs": [
					{
						"name": "lhs",
						"type": "bytes"
					},
					{
						"name": "rhs",
						"type": "bytes"
					}
				],
				"name": "publicAreBytesEqual",
				"outputs": [
					{
						"name": "equal",
						"type": "bool"
					}
				],
				"payable": false,
				"stateMutability": "pure",
				"type": "function"
			},
			{
				"constant": true,
				"inputs": [
					{
						"name": "b",
						"type": "bytes"
					}
				],
				"name": "publicPopAddress",
				"outputs": [
					{
						"name": "",
						"type": "bytes"
					},
					{
						"name": "result",
						"type": "address"
					}
				],
				"payable": false,
				"stateMutability": "pure",
				"type": "function"
			},
			{
				"constant": true,
				"inputs": [
					{
						"name": "b",
						"type": "bytes"
					},
					{
						"name": "index",
						"type": "uint256"
					}
				],
				"name": "publicReadBytes",
				"outputs": [
					{
						"name": "result",
						"type": "bytes"
					}
				],
				"payable": false,
				"stateMutability": "pure",
				"type": "function"
			},
			{
				"constant": true,
				"inputs": [
					{
						"name": "b",
						"type": "bytes"
					},
					{
						"name": "index",
						"type": "uint256"
					},
					{
						"name": "input",
						"type": "address"
					}
				],
				"name": "publicWriteAddress",
				"outputs": [
					{
						"name": "",
						"type": "bytes"
					}
				],
				"payable": false,
				"stateMutability": "pure",
				"type": "function"
			},
			{
				"constant": true,
				"inputs": [
					{
						"name": "b",
						"type": "bytes"
					}
				],
				"name": "publicReadFirst4",
				"outputs": [
					{
						"name": "result",
						"type": "bytes4"
					}
				],
				"payable": false,
				"stateMutability": "pure",
				"type": "function"
			},
			{
				"constant": true,
				"inputs": [
					{
						"name": "b",
						"type": "bytes"
					}
				],
				"name": "publicPopByte",
				"outputs": [
					{
						"name": "",
						"type": "bytes"
					},
					{
						"name": "result",
						"type": "bytes1"
					}
				],
				"payable": false,
				"stateMutability": "pure",
				"type": "function"
			},
			{
				"constant": true,
				"inputs": [
					{
						"name": "b",
						"type": "bytes"
					},
					{
						"name": "index",
						"type": "uint256"
					},
					{
						"name": "input",
						"type": "bytes"
					}
				],
				"name": "publicWriteBytes",
				"outputs": [
					{
						"name": "",
						"type": "bytes"
					}
				],
				"payable": false,
				"stateMutability": "pure",
				"type": "function"
			},
			{
				"constant": true,
				"inputs": [
					{
						"name": "b",
						"type": "bytes"
					},
					{
						"name": "index",
						"type": "uint256"
					}
				],
				"name": "publicReadAddress",
				"outputs": [
					{
						"name": "result",
						"type": "address"
					}
				],
				"payable": false,
				"stateMutability": "pure",
				"type": "function"
			},
			{
				"constant": true,
				"inputs": [
					{
						"name": "b",
						"type": "bytes"
					},
					{
						"name": "index",
						"type": "uint256"
					},
					{
						"name": "input",
						"type": "bytes32"
					}
				],
				"name": "publicWriteBytes32",
				"outputs": [
					{
						"name": "",
						"type": "bytes"
					}
				],
				"payable": false,
				"stateMutability": "pure",
				"type": "function"
			},
			{
				"constant": true,
				"inputs": [
					{
						"name": "b",
						"type": "bytes"
					},
					{
						"name": "index",
						"type": "uint256"
					},
					{
						"name": "input",
						"type": "uint256"
					}
				],
				"name": "publicWriteUint256",
				"outputs": [
					{
						"name": "",
						"type": "bytes"
					}
				],
				"payable": false,
				"stateMutability": "pure",
				"type": "function"
			},
			{
				"constant": true,
				"inputs": [
					{
						"name": "b",
						"type": "bytes"
					},
					{
						"name": "index",
						"type": "uint256"
					}
				],
				"name": "publicReadBytes32",
				"outputs": [
					{
						"name": "result",
						"type": "bytes32"
					}
				],
				"payable": false,
				"stateMutability": "pure",
				"type": "function"
			},
			{
				"constant": true,
				"inputs": [
					{
						"name": "b",
						"type": "bytes"
					},
					{
						"name": "index",
						"type": "uint256"
					}
				],
				"name": "publicReadUint256",
				"outputs": [
					{
						"name": "result",
						"type": "uint256"
					}
				],
				"payable": false,
				"stateMutability": "pure",
				"type": "function"
			}
		],
		"evm": {
			"bytecode": {
				"linkReferences": {},
				"object": "0x608060405234801561001057600080fd5b50610e91806100206000396000f3006080604052600436106100b95763ffffffff7c01000000000000000000000000000000000000000000000000000000006000350416630945c63b81146100be57806329f00d5c146100f457806335997eaf146101225780633f2a25ec1461014f578063595fe5471461016f5780637356f5f31461019c5780637d0d772f146101ca57806382e2fa24146101ea57806384f8775814610217578063b79650a414610237578063be766f1b14610257578063e3a85ce414610284575b600080fd5b3480156100ca57600080fd5b506100de6100d9366004610a45565b6102a4565b6040516100eb9190610c9b565b60405180910390f35b34801561010057600080fd5b5061011461010f366004610a08565b6102b9565b6040516100eb929190610cd6565b34801561012e57600080fd5b5061014261013d366004610aae565b6102cd565b6040516100eb9190610cc5565b34801561015b57600080fd5b5061014261016a366004610af5565b6102d9565b34801561017b57600080fd5b5061018f61018a366004610a08565b6102f0565b6040516100eb9190610cb7565b3480156101a857600080fd5b506101bc6101b7366004610a08565b6102fb565b6040516100eb929190610cf6565b3480156101d657600080fd5b506101426101e5366004610bb3565b610308565b3480156101f657600080fd5b5061020a610205366004610aae565b610315565b6040516100eb9190610c8d565b34801561022357600080fd5b50610142610232366004610b59565b610321565b34801561024357600080fd5b50610142610252366004610b59565b61032e565b34801561026357600080fd5b50610277610272366004610aae565b61033b565b6040516100eb9190610ca9565b34801561029057600080fd5b5061027761029f366004610aae565b610347565b60006102b08383610353565b90505b92915050565b606060006102c68361039a565b9293915050565b60606102b08383610435565b60606102e684848461050a565b50825b9392505050565b60006102b3826105a7565b606060006102c683610626565b60606102e68484846106cc565b60006102b0838361075d565b60606102e68484846107f5565b60606102e6848484610862565b60006102b0838361086d565b60006102b0838361033b565b60006020601f8451010460018101905060005b8181101561039257602081028581015190850151808214945084610388578392505b5050600101610366565b505092915050565b6000601482511015606060405190810160405280602b8152602001600080516020610e3883398151915281526020017f7175616c20746f2032302e0000000000000000000000000000000000000000008152509015156104195760405160e560020a62461bcd0281526004016104109190610cc5565b60405180910390fd5b5061042882601484510361075d565b8251601319019092525090565b60606000610443848461033b565b905060208301925080830184511015606060405190810160405280602b8152602001600080516020610e388339815191528152602001600080516020610e188339815191528152509015156104ae5760405160e560020a62461bcd0281526004016104109190610cc5565b50806040519080825280601f01601f1916602001820160405280156104dd578160200160208202803883390190505b5091506105036104ec836108dd565b602001846104f9876108dd565b01602001836108e0565b5092915050565b8160140183511015606060405190810160405280602b8152602001600080516020610e3883398151915281526020017f7175616c20746f2032302e0000000000000000000000000000000000000000008152509015156105805760405160e560020a62461bcd0281526004016104109190610cc5565b509101601401805173ffffffffffffffffffffffffffffffffffffffff1916919091189052565b6000600482511015606060405190810160405280602a8152602001600080516020610e3883398151915281526020017f7175616c20746f20342e0000000000000000000000000000000000000000000081525090151561061d5760405160e560020a62461bcd0281526004016104109190610cc5565b50506020015190565b805160408051808201909152601e81527f4c656e677468206d7573742062652067726561746572207468616e20302e0000602082015260009182106106815760405160e560020a62461bcd0281526004016104109190610cc5565b5081518290600019810190811061069457fe5b0160200151825160001901909252507f0100000000000000000000000000000000000000000000000000000000000000908190040290565b8051826020010183511015606060405190810160405280602b8152602001600080516020610e388339815191528152602001600080516020610e188339815191528152509015156107335760405160e560020a62461bcd0281526004016104109190610cc5565b5061075882610741856108dd565b6020010161074e836108dd565b83516020016108e0565b505050565b60008160140183511015606060405190810160405280602b8152602001600080516020610e3883398151915281526020017f7175616c20746f2032302e0000000000000000000000000000000000000000008152509015156107d55760405160e560020a62461bcd0281526004016104109190610cc5565b5050016014015173ffffffffffffffffffffffffffffffffffffffff1690565b8160200183511015606060405190810160405280602b8152602001600080516020610e388339815191528152602001600080516020610e188339815191528152509015156108595760405160e560020a62461bcd0281526004016104109190610cc5565b50910160200152565b6107588383836107f5565b60008160200183511015606060405190810160405280602b8152602001600080516020610e388339815191528152602001600080516020610e188339815191528152509015156108d35760405160e560020a62461bcd0281526004016104109190610cc5565b5050016020015190565b90565b602081101561090a576001816020036101000a038019835116818551168082178652505050610758565b8282141561091757610758565b8282111561095d5760208104602082039150818301828501815160005b84811015610952578651885260209788019790960195600101610934565b509052506107589050565b60208104602082039150818301828501845160005b848110156109915783518352601f199384019390920191600101610972565b508652505050505050565b60006102e98235610d69565b60006102e982356108dd565b6000601f820183136109c557600080fd5b81356109d86109d382610d3d565b610d16565b915080825260208301602083018583830111156109f457600080fd5b6109ff838284610dd1565b50505092915050565b600060208284031215610a1a57600080fd5b813567ffffffffffffffff811115610a3157600080fd5b610a3d848285016109b4565b949350505050565b60008060408385031215610a5857600080fd5b823567ffffffffffffffff811115610a6f57600080fd5b610a7b858286016109b4565b925050602083013567ffffffffffffffff811115610a9857600080fd5b610aa4858286016109b4565b9150509250929050565b60008060408385031215610ac157600080fd5b823567ffffffffffffffff811115610ad857600080fd5b610ae4858286016109b4565b9250506020610aa4858286016109a8565b600080600060608486031215610b0a57600080fd5b833567ffffffffffffffff811115610b2157600080fd5b610b2d868287016109b4565b9350506020610b3e868287016109a8565b9250506040610b4f8682870161099c565b9150509250925092565b600080600060608486031215610b6e57600080fd5b833567ffffffffffffffff811115610b8557600080fd5b610b91868287016109b4565b9350506020610ba2868287016109a8565b9250506040610b4f868287016109a8565b600080600060608486031215610bc857600080fd5b833567ffffffffffffffff811115610bdf57600080fd5b610beb868287016109b4565b9350506020610bfc868287016109a8565b925050604084013567ffffffffffffffff811115610c1957600080fd5b610b4f868287016109b4565b610c2e81610d69565b82525050565b610c2e81610d82565b610c2e81610d87565b610c2e816108dd565b610c2e81610dac565b6000610c6382610d65565b808452610c77816020860160208601610ddd565b610c8081610e0d565b9093016020019392505050565b602081016102b38284610c25565b602081016102b38284610c34565b602081016102b38284610c46565b602081016102b38284610c4f565b602080825281016102e98184610c58565b60408082528101610ce78185610c58565b90506102e96020830184610c25565b60408082528101610d078185610c58565b90506102e96020830184610c3d565b60405181810167ffffffffffffffff81118282101715610d3557600080fd5b604052919050565b600067ffffffffffffffff821115610d5457600080fd5b506020601f91909101601f19160190565b5190565b73ffffffffffffffffffffffffffffffffffffffff1690565b151590565b7fff000000000000000000000000000000000000000000000000000000000000001690565b7fffffffff000000000000000000000000000000000000000000000000000000001690565b82818337506000910152565b60005b83811015610df8578181015183820152602001610de0565b83811115610e07576000848401525b50505050565b601f01601f19169056007175616c20746f2033322e0000000000000000000000000000000000000000004c656e677468206d7573742062652067726561746572207468616e206f722065a265627a7a72305820c95dd60173892b31affa37878f1ec0d5a54dbd2dca648ad70fcd419bbc05babb6c6578706572696d656e74616cf50037",
				"opcodes": "PUSH1 0x80 PUSH1 0x40 MSTORE CALLVALUE DUP1 ISZERO PUSH2 0x10 JUMPI PUSH1 0x0 DUP1 REVERT JUMPDEST POP PUSH2 0xE91 DUP1 PUSH2 0x20 PUSH1 0x0 CODECOPY PUSH1 0x0 RETURN STOP PUSH1 0x80 PUSH1 0x40 MSTORE PUSH1 0x4 CALLDATASIZE LT PUSH2 0xB9 JUMPI PUSH4 0xFFFFFFFF PUSH29 0x100000000000000000000000000000000000000000000000000000000 PUSH1 0x0 CALLDATALOAD DIV AND PUSH4 0x945C63B DUP2 EQ PUSH2 0xBE JUMPI DUP1 PUSH4 0x29F00D5C EQ PUSH2 0xF4 JUMPI DUP1 PUSH4 0x35997EAF EQ PUSH2 0x122 JUMPI DUP1 PUSH4 0x3F2A25EC EQ PUSH2 0x14F JUMPI DUP1 PUSH4 0x595FE547 EQ PUSH2 0x16F JUMPI DUP1 PUSH4 0x7356F5F3 EQ PUSH2 0x19C JUMPI DUP1 PUSH4 0x7D0D772F EQ PUSH2 0x1CA JUMPI DUP1 PUSH4 0x82E2FA24 EQ PUSH2 0x1EA JUMPI DUP1 PUSH4 0x84F87758 EQ PUSH2 0x217 JUMPI DUP1 PUSH4 0xB79650A4 EQ PUSH2 0x237 JUMPI DUP1 PUSH4 0xBE766F1B EQ PUSH2 0x257 JUMPI DUP1 PUSH4 0xE3A85CE4 EQ PUSH2 0x284 JUMPI JUMPDEST PUSH1 0x0 DUP1 REVERT JUMPDEST CALLVALUE DUP1 ISZERO PUSH2 0xCA JUMPI PUSH1 0x0 DUP1 REVERT JUMPDEST POP PUSH2 0xDE PUSH2 0xD9 CALLDATASIZE PUSH1 0x4 PUSH2 0xA45 JUMP JUMPDEST PUSH2 0x2A4 JUMP JUMPDEST PUSH1 0x40 MLOAD PUSH2 0xEB SWAP2 SWAP1 PUSH2 0xC9B JUMP JUMPDEST PUSH1 0x40 MLOAD DUP1 SWAP2 SUB SWAP1 RETURN JUMPDEST CALLVALUE DUP1 ISZERO PUSH2 0x100 JUMPI PUSH1 0x0 DUP1 REVERT JUMPDEST POP PUSH2 0x114 PUSH2 0x10F CALLDATASIZE PUSH1 0x4 PUSH2 0xA08 JUMP JUMPDEST PUSH2 0x2B9 JUMP JUMPDEST PUSH1 0x40 MLOAD PUSH2 0xEB SWAP3 SWAP2 SWAP1 PUSH2 0xCD6 JUMP JUMPDEST CALLVALUE DUP1 ISZERO PUSH2 0x12E JUMPI PUSH1 0x0 DUP1 REVERT JUMPDEST POP PUSH2 0x142 PUSH2 0x13D CALLDATASIZE PUSH1 0x4 PUSH2 0xAAE JUMP JUMPDEST PUSH2 0x2CD JUMP JUMPDEST PUSH1 0x40 MLOAD PUSH2 0xEB SWAP2 SWAP1 PUSH2 0xCC5 JUMP JUMPDEST CALLVALUE DUP1 ISZERO PUSH2 0x15B JUMPI PUSH1 0x0 DUP1 REVERT JUMPDEST POP PUSH2 0x142 PUSH2 0x16A CALLDATASIZE PUSH1 0x4 PUSH2 0xAF5 JUMP JUMPDEST PUSH2 0x2D9 JUMP JUMPDEST CALLVALUE DUP1 ISZERO PUSH2 0x17B JUMPI PUSH1 0x0 DUP1 REVERT JUMPDEST POP PUSH2 0x18F PUSH2 0x18A CALLDATASIZE PUSH1 0x4 PUSH2 0xA08 JUMP JUMPDEST PUSH2 0x2F0 JUMP JUMPDEST PUSH1 0x40 MLOAD PUSH2 0xEB SWAP2 SWAP1 PUSH2 0xCB7 JUMP JUMPDEST CALLVALUE DUP1 ISZERO PUSH2 0x1A8 JUMPI PUSH1 0x0 DUP1 REVERT JUMPDEST POP PUSH2 0x1BC PUSH2 0x1B7 CALLDATASIZE PUSH1 0x4 PUSH2 0xA08 JUMP JUMPDEST PUSH2 0x2FB JUMP JUMPDEST PUSH1 0x40 MLOAD PUSH2 0xEB SWAP3 SWAP2 SWAP1 PUSH2 0xCF6 JUMP JUMPDEST CALLVALUE DUP1 ISZERO PUSH2 0x1D6 JUMPI PUSH1 0x0 DUP1 REVERT JUMPDEST POP PUSH2 0x142 PUSH2 0x1E5 CALLDATASIZE PUSH1 0x4 PUSH2 0xBB3 JUMP JUMPDEST PUSH2 0x308 JUMP JUMPDEST CALLVALUE DUP1 ISZERO PUSH2 0x1F6 JUMPI PUSH1 0x0 DUP1 REVERT JUMPDEST POP PUSH2 0x20A PUSH2 0x205 CALLDATASIZE PUSH1 0x4 PUSH2 0xAAE JUMP JUMPDEST PUSH2 0x315 JUMP JUMPDEST PUSH1 0x40 MLOAD PUSH2 0xEB SWAP2 SWAP1 PUSH2 0xC8D JUMP JUMPDEST CALLVALUE DUP1 ISZERO PUSH2 0x223 JUMPI PUSH1 0x0 DUP1 REVERT JUMPDEST POP PUSH2 0x142 PUSH2 0x232 CALLDATASIZE PUSH1 0x4 PUSH2 0xB59 JUMP JUMPDEST PUSH2 0x321 JUMP JUMPDEST CALLVALUE DUP1 ISZERO PUSH2 0x243 JUMPI PUSH1 0x0 DUP1 REVERT JUMPDEST POP PUSH2 0x142 PUSH2 0x252 CALLDATASIZE PUSH1 0x4 PUSH2 0xB59 JUMP JUMPDEST PUSH2 0x32E JUMP JUMPDEST CALLVALUE DUP1 ISZERO PUSH2 0x263 JUMPI PUSH1 0x0 DUP1 REVERT JUMPDEST POP PUSH2 0x277 PUSH2 0x272 CALLDATASIZE PUSH1 0x4 PUSH2 0xAAE JUMP JUMPDEST PUSH2 0x33B JUMP JUMPDEST PUSH1 0x40 MLOAD PUSH2 0xEB SWAP2 SWAP1 PUSH2 0xCA9 JUMP JUMPDEST CALLVALUE DUP1 ISZERO PUSH2 0x290 JUMPI PUSH1 0x0 DUP1 REVERT JUMPDEST POP PUSH2 0x277 PUSH2 0x29F CALLDATASIZE PUSH1 0x4 PUSH2 0xAAE JUMP JUMPDEST PUSH2 0x347 JUMP JUMPDEST PUSH1 0x0 PUSH2 0x2B0 DUP4 DUP4 PUSH2 0x353 JUMP JUMPDEST SWAP1 POP JUMPDEST SWAP3 SWAP2 POP POP JUMP JUMPDEST PUSH1 0x60 PUSH1 0x0 PUSH2 0x2C6 DUP4 PUSH2 0x39A JUMP JUMPDEST SWAP3 SWAP4 SWAP2 POP POP JUMP JUMPDEST PUSH1 0x60 PUSH2 0x2B0 DUP4 DUP4 PUSH2 0x435 JUMP JUMPDEST PUSH1 0x60 PUSH2 0x2E6 DUP5 DUP5 DUP5 PUSH2 0x50A JUMP JUMPDEST POP DUP3 JUMPDEST SWAP4 SWAP3 POP POP POP JUMP JUMPDEST PUSH1 0x0 PUSH2 0x2B3 DUP3 PUSH2 0x5A7 JUMP JUMPDEST PUSH1 0x60 PUSH1 0x0 PUSH2 0x2C6 DUP4 PUSH2 0x626 JUMP JUMPDEST PUSH1 0x60 PUSH2 0x2E6 DUP5 DUP5 DUP5 PUSH2 0x6CC JUMP JUMPDEST PUSH1 0x0 PUSH2 0x2B0 DUP4 DUP4 PUSH2 0x75D JUMP JUMPDEST PUSH1 0x60 PUSH2 0x2E6 DUP5 DUP5 DUP5 PUSH2 0x7F5 JUMP JUMPDEST PUSH1 0x60 PUSH2 0x2E6 DUP5 DUP5 DUP5 PUSH2 0x862 JUMP JUMPDEST PUSH1 0x0 PUSH2 0x2B0 DUP4 DUP4 PUSH2 0x86D JUMP JUMPDEST PUSH1 0x0 PUSH2 0x2B0 DUP4 DUP4 PUSH2 0x33B JUMP JUMPDEST PUSH1 0x0 PUSH1 0x20 PUSH1 0x1F DUP5 MLOAD ADD DIV PUSH1 0x1 DUP2 ADD SWAP1 POP PUSH1 0x0 JUMPDEST DUP2 DUP2 LT ISZERO PUSH2 0x392 JUMPI PUSH1 0x20 DUP2 MUL DUP6 DUP2 ADD MLOAD SWAP1 DUP6 ADD MLOAD DUP1 DUP3 EQ SWAP5 POP DUP5 PUSH2 0x388 JUMPI DUP4 SWAP3 POP JUMPDEST POP POP PUSH1 0x1 ADD PUSH2 0x366 JUMP JUMPDEST POP POP SWAP3 SWAP2 POP POP JUMP JUMPDEST PUSH1 0x0 PUSH1 0x14 DUP3 MLOAD LT ISZERO PUSH1 0x60 PUSH1 0x40 MLOAD SWAP1 DUP2 ADD PUSH1 0x40 MSTORE DUP1 PUSH1 0x2B DUP2 MSTORE PUSH1 0x20 ADD PUSH1 0x0 DUP1 MLOAD PUSH1 0x20 PUSH2 0xE38 DUP4 CODECOPY DUP2 MLOAD SWAP2 MSTORE DUP2 MSTORE PUSH1 0x20 ADD PUSH32 0x7175616C20746F2032302E000000000000000000000000000000000000000000 DUP2 MSTORE POP SWAP1 ISZERO ISZERO PUSH2 0x419 JUMPI PUSH1 0x40 MLOAD PUSH1 0xE5 PUSH1 0x2 EXP PUSH3 0x461BCD MUL DUP2 MSTORE PUSH1 0x4 ADD PUSH2 0x410 SWAP2 SWAP1 PUSH2 0xCC5 JUMP JUMPDEST PUSH1 0x40 MLOAD DUP1 SWAP2 SUB SWAP1 REVERT JUMPDEST POP PUSH2 0x428 DUP3 PUSH1 0x14 DUP5 MLOAD SUB PUSH2 0x75D JUMP JUMPDEST DUP3 MLOAD PUSH1 0x13 NOT ADD SWAP1 SWAP3 MSTORE POP SWAP1 JUMP JUMPDEST PUSH1 0x60 PUSH1 0x0 PUSH2 0x443 DUP5 DUP5 PUSH2 0x33B JUMP JUMPDEST SWAP1 POP PUSH1 0x20 DUP4 ADD SWAP3 POP DUP1 DUP4 ADD DUP5 MLOAD LT ISZERO PUSH1 0x60 PUSH1 0x40 MLOAD SWAP1 DUP2 ADD PUSH1 0x40 MSTORE DUP1 PUSH1 0x2B DUP2 MSTORE PUSH1 0x20 ADD PUSH1 0x0 DUP1 MLOAD PUSH1 0x20 PUSH2 0xE38 DUP4 CODECOPY DUP2 MLOAD SWAP2 MSTORE DUP2 MSTORE PUSH1 0x20 ADD PUSH1 0x0 DUP1 MLOAD PUSH1 0x20 PUSH2 0xE18 DUP4 CODECOPY DUP2 MLOAD SWAP2 MSTORE DUP2 MSTORE POP SWAP1 ISZERO ISZERO PUSH2 0x4AE JUMPI PUSH1 0x40 MLOAD PUSH1 0xE5 PUSH1 0x2 EXP PUSH3 0x461BCD MUL DUP2 MSTORE PUSH1 0x4 ADD PUSH2 0x410 SWAP2 SWAP1 PUSH2 0xCC5 JUMP JUMPDEST POP DUP1 PUSH1 0x40 MLOAD SWAP1 DUP1 DUP3 MSTORE DUP1 PUSH1 0x1F ADD PUSH1 0x1F NOT AND PUSH1 0x20 ADD DUP3 ADD PUSH1 0x40 MSTORE DUP1 ISZERO PUSH2 0x4DD JUMPI DUP2 PUSH1 0x20 ADD PUSH1 0x20 DUP3 MUL DUP1 CODESIZE DUP4 CODECOPY ADD SWAP1 POP JUMPDEST POP SWAP2 POP PUSH2 0x503 PUSH2 0x4EC DUP4 PUSH2 0x8DD JUMP JUMPDEST PUSH1 0x20 ADD DUP5 PUSH2 0x4F9 DUP8 PUSH2 0x8DD JUMP JUMPDEST ADD PUSH1 0x20 ADD DUP4 PUSH2 0x8E0 JUMP JUMPDEST POP SWAP3 SWAP2 POP POP JUMP JUMPDEST DUP2 PUSH1 0x14 ADD DUP4 MLOAD LT ISZERO PUSH1 0x60 PUSH1 0x40 MLOAD SWAP1 DUP2 ADD PUSH1 0x40 MSTORE DUP1 PUSH1 0x2B DUP2 MSTORE PUSH1 0x20 ADD PUSH1 0x0 DUP1 MLOAD PUSH1 0x20 PUSH2 0xE38 DUP4 CODECOPY DUP2 MLOAD SWAP2 MSTORE DUP2 MSTORE PUSH1 0x20 ADD PUSH32 0x7175616C20746F2032302E000000000000000000000000000000000000000000 DUP2 MSTORE POP SWAP1 ISZERO ISZERO PUSH2 0x580 JUMPI PUSH1 0x40 MLOAD PUSH1 0xE5 PUSH1 0x2 EXP PUSH3 0x461BCD MUL DUP2 MSTORE PUSH1 0x4 ADD PUSH2 0x410 SWAP2 SWAP1 PUSH2 0xCC5 JUMP JUMPDEST POP SWAP2 ADD PUSH1 0x14 ADD DUP1 MLOAD PUSH20 0xFFFFFFFFFFFFFFFFFFFFFFFFFFFFFFFFFFFFFFFF NOT AND SWAP2 SWAP1 SWAP2 XOR SWAP1 MSTORE JUMP JUMPDEST PUSH1 0x0 PUSH1 0x4 DUP3 MLOAD LT ISZERO PUSH1 0x60 PUSH1 0x40 MLOAD SWAP1 DUP2 ADD PUSH1 0x40 MSTORE DUP1 PUSH1 0x2A DUP2 MSTORE PUSH1 0x20 ADD PUSH1 0x0 DUP1 MLOAD PUSH1 0x20 PUSH2 0xE38 DUP4 CODECOPY DUP2 MLOAD SWAP2 MSTORE DUP2 MSTORE PUSH1 0x20 ADD PUSH32 0x7175616C20746F20342E00000000000000000000000000000000000000000000 DUP2 MSTORE POP SWAP1 ISZERO ISZERO PUSH2 0x61D JUMPI PUSH1 0x40 MLOAD PUSH1 0xE5 PUSH1 0x2 EXP PUSH3 0x461BCD MUL DUP2 MSTORE PUSH1 0x4 ADD PUSH2 0x410 SWAP2 SWAP1 PUSH2 0xCC5 JUMP JUMPDEST POP POP PUSH1 0x20 ADD MLOAD SWAP1 JUMP JUMPDEST DUP1 MLOAD PUSH1 0x40 DUP1 MLOAD DUP1 DUP3 ADD SWAP1 SWAP2 MSTORE PUSH1 0x1E DUP2 MSTORE PUSH32 0x4C656E677468206D7573742062652067726561746572207468616E20302E0000 PUSH1 0x20 DUP3 ADD MSTORE PUSH1 0x0 SWAP2 DUP3 LT PUSH2 0x681 JUMPI PUSH1 0x40 MLOAD PUSH1 0xE5 PUSH1 0x2 EXP PUSH3 0x461BCD MUL DUP2 MSTORE PUSH1 0x4 ADD PUSH2 0x410 SWAP2 SWAP1 PUSH2 0xCC5 JUMP JUMPDEST POP DUP2 MLOAD DUP3 SWAP1 PUSH1 0x0 NOT DUP2 ADD SWAP1 DUP2 LT PUSH2 0x694 JUMPI INVALID JUMPDEST ADD PUSH1 0x20 ADD MLOAD DUP3 MLOAD PUSH1 0x0 NOT ADD SWAP1 SWAP3 MSTORE POP PUSH32 0x100000000000000000000000000000000000000000000000000000000000000 SWAP1 DUP2 SWAP1 DIV MUL SWAP1 JUMP JUMPDEST DUP1 MLOAD DUP3 PUSH1 0x20 ADD ADD DUP4 MLOAD LT ISZERO PUSH1 0x60 PUSH1 0x40 MLOAD SWAP1 DUP2 ADD PUSH1 0x40 MSTORE DUP1 PUSH1 0x2B DUP2 MSTORE PUSH1 0x20 ADD PUSH1 0x0 DUP1 MLOAD PUSH1 0x20 PUSH2 0xE38 DUP4 CODECOPY DUP2 MLOAD SWAP2 MSTORE DUP2 MSTORE PUSH1 0x20 ADD PUSH1 0x0 DUP1 MLOAD PUSH1 0x20 PUSH2 0xE18 DUP4 CODECOPY DUP2 MLOAD SWAP2 MSTORE DUP2 MSTORE POP SWAP1 ISZERO ISZERO PUSH2 0x733 JUMPI PUSH1 0x40 MLOAD PUSH1 0xE5 PUSH1 0x2 EXP PUSH3 0x461BCD MUL DUP2 MSTORE PUSH1 0x4 ADD PUSH2 0x410 SWAP2 SWAP1 PUSH2 0xCC5 JUMP JUMPDEST POP PUSH2 0x758 DUP3 PUSH2 0x741 DUP6 PUSH2 0x8DD JUMP JUMPDEST PUSH1 0x20 ADD ADD PUSH2 0x74E DUP4 PUSH2 0x8DD JUMP JUMPDEST DUP4 MLOAD PUSH1 0x20 ADD PUSH2 0x8E0 JUMP JUMPDEST POP POP POP JUMP JUMPDEST PUSH1 0x0 DUP2 PUSH1 0x14 ADD DUP4 MLOAD LT ISZERO PUSH1 0x60 PUSH1 0x40 MLOAD SWAP1 DUP2 ADD PUSH1 0x40 MSTORE DUP1 PUSH1 0x2B DUP2 MSTORE PUSH1 0x20 ADD PUSH1 0x0 DUP1 MLOAD PUSH1 0x20 PUSH2 0xE38 DUP4 CODECOPY DUP2 MLOAD SWAP2 MSTORE DUP2 MSTORE PUSH1 0x20 ADD PUSH32 0x7175616C20746F2032302E000000000000000000000000000000000000000000 DUP2 MSTORE POP SWAP1 ISZERO ISZERO PUSH2 0x7D5 JUMPI PUSH1 0x40 MLOAD PUSH1 0xE5 PUSH1 0x2 EXP PUSH3 0x461BCD MUL DUP2 MSTORE PUSH1 0x4 ADD PUSH2 0x410 SWAP2 SWAP1 PUSH2 0xCC5 JUMP JUMPDEST POP POP ADD PUSH1 0x14 ADD MLOAD PUSH20 0xFFFFFFFFFFFFFFFFFFFFFFFFFFFFFFFFFFFFFFFF AND SWAP1 JUMP JUMPDEST DUP2 PUSH1 0x20 ADD DUP4 MLOAD LT ISZERO PUSH1 0x60 PUSH1 0x40 MLOAD SWAP1 DUP2 ADD PUSH1 0x40 MSTORE DUP1 PUSH1 0x2B DUP2 MSTORE PUSH1 0x20 ADD PUSH1 0x0 DUP1 MLOAD PUSH1 0x20 PUSH2 0xE38 DUP4 CODECOPY DUP2 MLOAD SWAP2 MSTORE DUP2 MSTORE PUSH1 0x20 ADD PUSH1 0x0 DUP1 MLOAD PUSH1 0x20 PUSH2 0xE18 DUP4 CODECOPY DUP2 MLOAD SWAP2 MSTORE DUP2 MSTORE POP SWAP1 ISZERO ISZERO PUSH2 0x859 JUMPI PUSH1 0x40 MLOAD PUSH1 0xE5 PUSH1 0x2 EXP PUSH3 0x461BCD MUL DUP2 MSTORE PUSH1 0x4 ADD PUSH2 0x410 SWAP2 SWAP1 PUSH2 0xCC5 JUMP JUMPDEST POP SWAP2 ADD PUSH1 0x20 ADD MSTORE JUMP JUMPDEST PUSH2 0x758 DUP4 DUP4 DUP4 PUSH2 0x7F5 JUMP JUMPDEST PUSH1 0x0 DUP2 PUSH1 0x20 ADD DUP4 MLOAD LT ISZERO PUSH1 0x60 PUSH1 0x40 MLOAD SWAP1 DUP2 ADD PUSH1 0x40 MSTORE DUP1 PUSH1 0x2B DUP2 MSTORE PUSH1 0x20 ADD PUSH1 0x0 DUP1 MLOAD PUSH1 0x20 PUSH2 0xE38 DUP4 CODECOPY DUP2 MLOAD SWAP2 MSTORE DUP2 MSTORE PUSH1 0x20 ADD PUSH1 0x0 DUP1 MLOAD PUSH1 0x20 PUSH2 0xE18 DUP4 CODECOPY DUP2 MLOAD SWAP2 MSTORE DUP2 MSTORE POP SWAP1 ISZERO ISZERO PUSH2 0x8D3 JUMPI PUSH1 0x40 MLOAD PUSH1 0xE5 PUSH1 0x2 EXP PUSH3 0x461BCD MUL DUP2 MSTORE PUSH1 0x4 ADD PUSH2 0x410 SWAP2 SWAP1 PUSH2 0xCC5 JUMP JUMPDEST POP POP ADD PUSH1 0x20 ADD MLOAD SWAP1 JUMP JUMPDEST SWAP1 JUMP JUMPDEST PUSH1 0x20 DUP2 LT ISZERO PUSH2 0x90A JUMPI PUSH1 0x1 DUP2 PUSH1 0x20 SUB PUSH2 0x100 EXP SUB DUP1 NOT DUP4 MLOAD AND DUP2 DUP6 MLOAD AND DUP1 DUP3 OR DUP7 MSTORE POP POP POP PUSH2 0x758 JUMP JUMPDEST DUP3 DUP3 EQ ISZERO PUSH2 0x917 JUMPI PUSH2 0x758 JUMP JUMPDEST DUP3 DUP3 GT ISZERO PUSH2 0x95D JUMPI PUSH1 0x20 DUP2 DIV PUSH1 0x20 DUP3 SUB SWAP2 POP DUP2 DUP4 ADD DUP3 DUP6 ADD DUP2 MLOAD PUSH1 0x0 JUMPDEST DUP5 DUP2 LT ISZERO PUSH2 0x952 JUMPI DUP7 MLOAD DUP9 MSTORE PUSH1 0x20 SWAP8 DUP9 ADD SWAP8 SWAP1 SWAP7 ADD SWAP6 PUSH1 0x1 ADD PUSH2 0x934 JUMP JUMPDEST POP SWAP1 MSTORE POP PUSH2 0x758 SWAP1 POP JUMP JUMPDEST PUSH1 0x20 DUP2 DIV PUSH1 0x20 DUP3 SUB SWAP2 POP DUP2 DUP4 ADD DUP3 DUP6 ADD DUP5 MLOAD PUSH1 0x0 JUMPDEST DUP5 DUP2 LT ISZERO PUSH2 0x991 JUMPI DUP4 MLOAD DUP4 MSTORE PUSH1 0x1F NOT SWAP4 DUP5 ADD SWAP4 SWAP1 SWAP3 ADD SWAP2 PUSH1 0x1 ADD PUSH2 0x972 JUMP JUMPDEST POP DUP7 MSTORE POP POP POP POP POP POP JUMP JUMPDEST PUSH1 0x0 PUSH2 0x2E9 DUP3 CALLDATALOAD PUSH2 0xD69 JUMP JUMPDEST PUSH1 0x0 PUSH2 0x2E9 DUP3 CALLDATALOAD PUSH2 0x8DD JUMP JUMPDEST PUSH1 0x0 PUSH1 0x1F DUP3 ADD DUP4 SGT PUSH2 0x9C5 JUMPI PUSH1 0x0 DUP1 REVERT JUMPDEST DUP2 CALLDATALOAD PUSH2 0x9D8 PUSH2 0x9D3 DUP3 PUSH2 0xD3D JUMP JUMPDEST PUSH2 0xD16 JUMP JUMPDEST SWAP2 POP DUP1 DUP3 MSTORE PUSH1 0x20 DUP4 ADD PUSH1 0x20 DUP4 ADD DUP6 DUP4 DUP4 ADD GT ISZERO PUSH2 0x9F4 JUMPI PUSH1 0x0 DUP1 REVERT JUMPDEST PUSH2 0x9FF DUP4 DUP3 DUP5 PUSH2 0xDD1 JUMP JUMPDEST POP POP POP SWAP3 SWAP2 POP POP JUMP JUMPDEST PUSH1 0x0 PUSH1 0x20 DUP3 DUP5 SUB SLT ISZERO PUSH2 0xA1A JUMPI PUSH1 0x0 DUP1 REVERT JUMPDEST DUP2 CALLDATALOAD PUSH8 0xFFFFFFFFFFFFFFFF DUP2 GT ISZERO PUSH2 0xA31 JUMPI PUSH1 0x0 DUP1 REVERT JUMPDEST PUSH2 0xA3D DUP5 DUP3 DUP6 ADD PUSH2 0x9B4 JUMP JUMPDEST SWAP5 SWAP4 POP POP POP POP JUMP JUMPDEST PUSH1 0x0 DUP1 PUSH1 0x40 DUP4 DUP6 SUB SLT ISZERO PUSH2 0xA58 JUMPI PUSH1 0x0 DUP1 REVERT JUMPDEST DUP3 CALLDATALOAD PUSH8 0xFFFFFFFFFFFFFFFF DUP2 GT ISZERO PUSH2 0xA6F JUMPI PUSH1 0x0 DUP1 REVERT JUMPDEST PUSH2 0xA7B DUP6 DUP3 DUP7 ADD PUSH2 0x9B4 JUMP JUMPDEST SWAP3 POP POP PUSH1 0x20 DUP4 ADD CALLDATALOAD PUSH8 0xFFFFFFFFFFFFFFFF DUP2 GT ISZERO PUSH2 0xA98 JUMPI PUSH1 0x0 DUP1 REVERT JUMPDEST PUSH2 0xAA4 DUP6 DUP3 DUP7 ADD PUSH2 0x9B4 JUMP JUMPDEST SWAP2 POP POP SWAP3 POP SWAP3 SWAP1 POP JUMP JUMPDEST PUSH1 0x0 DUP1 PUSH1 0x40 DUP4 DUP6 SUB SLT ISZERO PUSH2 0xAC1 JUMPI PUSH1 0x0 DUP1 REVERT JUMPDEST DUP3 CALLDATALOAD PUSH8 0xFFFFFFFFFFFFFFFF DUP2 GT ISZERO PUSH2 0xAD8 JUMPI PUSH1 0x0 DUP1 REVERT JUMPDEST PUSH2 0xAE4 DUP6 DUP3 DUP7 ADD PUSH2 0x9B4 JUMP JUMPDEST SWAP3 POP POP PUSH1 0x20 PUSH2 0xAA4 DUP6 DUP3 DUP7 ADD PUSH2 0x9A8 JUMP JUMPDEST PUSH1 0x0 DUP1 PUSH1 0x0 PUSH1 0x60 DUP5 DUP7 SUB SLT ISZERO PUSH2 0xB0A JUMPI PUSH1 0x0 DUP1 REVERT JUMPDEST DUP4 CALLDATALOAD PUSH8 0xFFFFFFFFFFFFFFFF DUP2 GT ISZERO PUSH2 0xB21 JUMPI PUSH1 0x0 DUP1 REVERT JUMPDEST PUSH2 0xB2D DUP7 DUP3 DUP8 ADD PUSH2 0x9B4 JUMP JUMPDEST SWAP4 POP POP PUSH1 0x20 PUSH2 0xB3E DUP7 DUP3 DUP8 ADD PUSH2 0x9A8 JUMP JUMPDEST SWAP3 POP POP PUSH1 0x40 PUSH2 0xB4F DUP7 DUP3 DUP8 ADD PUSH2 0x99C JUMP JUMPDEST SWAP2 POP POP SWAP3 POP SWAP3 POP SWAP3 JUMP JUMPDEST PUSH1 0x0 DUP1 PUSH1 0x0 PUSH1 0x60 DUP5 DUP7 SUB SLT ISZERO PUSH2 0xB6E JUMPI PUSH1 0x0 DUP1 REVERT JUMPDEST DUP4 CALLDATALOAD PUSH8 0xFFFFFFFFFFFFFFFF DUP2 GT ISZERO PUSH2 0xB85 JUMPI PUSH1 0x0 DUP1 REVERT JUMPDEST PUSH2 0xB91 DUP7 DUP3 DUP8 ADD PUSH2 0x9B4 JUMP JUMPDEST SWAP4 POP POP PUSH1 0x20 PUSH2 0xBA2 DUP7 DUP3 DUP8 ADD PUSH2 0x9A8 JUMP JUMPDEST SWAP3 POP POP PUSH1 0x40 PUSH2 0xB4F DUP7 DUP3 DUP8 ADD PUSH2 0x9A8 JUMP JUMPDEST PUSH1 0x0 DUP1 PUSH1 0x0 PUSH1 0x60 DUP5 DUP7 SUB SLT ISZERO PUSH2 0xBC8 JUMPI PUSH1 0x0 DUP1 REVERT JUMPDEST DUP4 CALLDATALOAD PUSH8 0xFFFFFFFFFFFFFFFF DUP2 GT ISZERO PUSH2 0xBDF JUMPI PUSH1 0x0 DUP1 REVERT JUMPDEST PUSH2 0xBEB DUP7 DUP3 DUP8 ADD PUSH2 0x9B4 JUMP JUMPDEST SWAP4 POP POP PUSH1 0x20 PUSH2 0xBFC DUP7 DUP3 DUP8 ADD PUSH2 0x9A8 JUMP JUMPDEST SWAP3 POP POP PUSH1 0x40 DUP5 ADD CALLDATALOAD PUSH8 0xFFFFFFFFFFFFFFFF DUP2 GT ISZERO PUSH2 0xC19 JUMPI PUSH1 0x0 DUP1 REVERT JUMPDEST PUSH2 0xB4F DUP7 DUP3 DUP8 ADD PUSH2 0x9B4 JUMP JUMPDEST PUSH2 0xC2E DUP2 PUSH2 0xD69 JUMP JUMPDEST DUP3 MSTORE POP POP JUMP JUMPDEST PUSH2 0xC2E DUP2 PUSH2 0xD82 JUMP JUMPDEST PUSH2 0xC2E DUP2 PUSH2 0xD87 JUMP JUMPDEST PUSH2 0xC2E DUP2 PUSH2 0x8DD JUMP JUMPDEST PUSH2 0xC2E DUP2 PUSH2 0xDAC JUMP JUMPDEST PUSH1 0x0 PUSH2 0xC63 DUP3 PUSH2 0xD65 JUMP JUMPDEST DUP1 DUP5 MSTORE PUSH2 0xC77 DUP2 PUSH1 0x20 DUP7 ADD PUSH1 0x20 DUP7 ADD PUSH2 0xDDD JUMP JUMPDEST PUSH2 0xC80 DUP2 PUSH2 0xE0D JUMP JUMPDEST SWAP1 SWAP4 ADD PUSH1 0x20 ADD SWAP4 SWAP3 POP POP POP JUMP JUMPDEST PUSH1 0x20 DUP2 ADD PUSH2 0x2B3 DUP3 DUP5 PUSH2 0xC25 JUMP JUMPDEST PUSH1 0x20 DUP2 ADD PUSH2 0x2B3 DUP3 DUP5 PUSH2 0xC34 JUMP JUMPDEST PUSH1 0x20 DUP2 ADD PUSH2 0x2B3 DUP3 DUP5 PUSH2 0xC46 JUMP JUMPDEST PUSH1 0x20 DUP2 ADD PUSH2 0x2B3 DUP3 DUP5 PUSH2 0xC4F JUMP JUMPDEST PUSH1 0x20 DUP1 DUP3 MSTORE DUP2 ADD PUSH2 0x2E9 DUP2 DUP5 PUSH2 0xC58 JUMP JUMPDEST PUSH1 0x40 DUP1 DUP3 MSTORE DUP2 ADD PUSH2 0xCE7 DUP2 DUP6 PUSH2 0xC58 JUMP JUMPDEST SWAP1 POP PUSH2 0x2E9 PUSH1 0x20 DUP4 ADD DUP5 PUSH2 0xC25 JUMP JUMPDEST PUSH1 0x40 DUP1 DUP3 MSTORE DUP2 ADD PUSH2 0xD07 DUP2 DUP6 PUSH2 0xC58 JUMP JUMPDEST SWAP1 POP PUSH2 0x2E9 PUSH1 0x20 DUP4 ADD DUP5 PUSH2 0xC3D JUMP JUMPDEST PUSH1 0x40 MLOAD DUP2 DUP2 ADD PUSH8 0xFFFFFFFFFFFFFFFF DUP2 GT DUP3 DUP3 LT OR ISZERO PUSH2 0xD35 JUMPI PUSH1 0x0 DUP1 REVERT JUMPDEST PUSH1 0x40 MSTORE SWAP2 SWAP1 POP JUMP JUMPDEST PUSH1 0x0 PUSH8 0xFFFFFFFFFFFFFFFF DUP3 GT ISZERO PUSH2 0xD54 JUMPI PUSH1 0x0 DUP1 REVERT JUMPDEST POP PUSH1 0x20 PUSH1 0x1F SWAP2 SWAP1 SWAP2 ADD PUSH1 0x1F NOT AND ADD SWAP1 JUMP JUMPDEST MLOAD SWAP1 JUMP JUMPDEST PUSH20 0xFFFFFFFFFFFFFFFFFFFFFFFFFFFFFFFFFFFFFFFF AND SWAP1 JUMP JUMPDEST ISZERO ISZERO SWAP1 JUMP JUMPDEST PUSH32 0xFF00000000000000000000000000000000000000000000000000000000000000 AND SWAP1 JUMP JUMPDEST PUSH32 0xFFFFFFFF00000000000000000000000000000000000000000000000000000000 AND SWAP1 JUMP JUMPDEST DUP3 DUP2 DUP4 CALLDATACOPY POP PUSH1 0x0 SWAP2 ADD MSTORE JUMP JUMPDEST PUSH1 0x0 JUMPDEST DUP4 DUP2 LT ISZERO PUSH2 0xDF8 JUMPI DUP2 DUP2 ADD MLOAD DUP4 DUP3 ADD MSTORE PUSH1 0x20 ADD PUSH2 0xDE0 JUMP JUMPDEST DUP4 DUP2 GT ISZERO PUSH2 0xE07 JUMPI PUSH1 0x0 DUP5 DUP5 ADD MSTORE JUMPDEST POP POP POP POP JUMP JUMPDEST PUSH1 0x1F ADD PUSH1 0x1F NOT AND SWAP1 JUMP STOP PUSH18 0x75616C20746F2033322E0000000000000000 STOP STOP STOP STOP STOP STOP STOP STOP STOP STOP STOP STOP STOP 0x4c PUSH6 0x6E677468206D PUSH22 0x73742062652067726561746572207468616E206F7220 PUSH6 0xA265627A7A72 ADDRESS PC KECCAK256 0xc9 0x5d 0xd6 ADD PUSH20 0x892B31AFFA37878F1EC0D5A54DBD2DCA648AD70F 0xcd COINBASE SWAP12 0xbc SDIV 0xba 0xbb PUSH13 0x6578706572696D656E74616CF5 STOP CALLDATACOPY "
			}
		}
	},
	"sourceTreeHashHex": "0xaff634e651661079a840b64c3db7d0332171151d5a020c403479b9c30a0daf70",
	"compiler": {
		"name": "solc",
		"version": "soljson-v0.4.24+commit.e67f0147.js",
		"settings": {
			"optimizer": {
				"enabled": true,
				"runs": 200
			},
			"outputSelection": {
				"*": {
					"*": [
						"abi",
						"evm.bytecode.object",
						"evm.bytecode.sourceMap",
						"evm.deployedBytecode.object",
						"evm.deployedBytecode.sourceMap"
					]
				}
			}
		}
	}
}